{"contracts/Escrow.sol":{"Escrow":{"abi":[{"inputs":[{"internalType":"address","name":"_nftAddress","type":"address"},{"internalType":"address payable","name":"_seller","type":"address"},{"internalType":"address","name":"_inspector","type":"address"},{"internalType":"address","name":"_lender","type":"address"}],"stateMutability":"nonpayable","type":"constructor"},{"inputs":[{"internalType":"uint256","name":"","type":"uint256"}],"name":"buyer","outputs":[{"internalType":"address","name":"","type":"address"}],"stateMutability":"view","type":"function"},{"inputs":[{"internalType":"uint256","name":"_nftID","type":"uint256"}],"name":"depositEarnest","outputs":[],"stateMutability":"payable","type":"function"},{"inputs":[{"internalType":"uint256","name":"","type":"uint256"}],"name":"escrowAmount","outputs":[{"internalType":"uint256","name":"","type":"uint256"}],"stateMutability":"view","type":"function"},{"inputs":[],"name":"getBalance","outputs":[{"internalType":"uint256","name":"","type":"uint256"}],"stateMutability":"view","type":"function"},{"inputs":[{"internalType":"uint256","name":"","type":"uint256"}],"name":"inspectionPassed","outputs":[{"internalType":"bool","name":"","type":"bool"}],"stateMutability":"view","type":"function"},{"inputs":[],"name":"inspector","outputs":[{"internalType":"address","name":"","type":"address"}],"stateMutability":"view","type":"function"},{"inputs":[{"internalType":"uint256","name":"","type":"uint256"}],"name":"isListed","outputs":[{"internalType":"bool","name":"","type":"bool"}],"stateMutability":"view","type":"function"},{"inputs":[],"name":"lender","outputs":[{"internalType":"address","name":"","type":"address"}],"stateMutability":"view","type":"function"},{"inputs":[{"internalType":"uint256","name":"_nftID","type":"uint256"},{"internalType":"address","name":"_buyer","type":"address"},{"internalType":"uint256","name":"_purchasePrice","type":"uint256"},{"internalType":"uint256","name":"_escrowAmount","type":"uint256"}],"name":"list","outputs":[],"stateMutability":"payable","type":"function"},{"inputs":[],"name":"nftAddress","outputs":[{"internalType":"address","name":"","type":"address"}],"stateMutability":"view","type":"function"},{"inputs":[{"internalType":"uint256","name":"","type":"uint256"}],"name":"purchasePrice","outputs":[{"internalType":"uint256","name":"","type":"uint256"}],"stateMutability":"view","type":"function"},{"inputs":[],"name":"seller","outputs":[{"internalType":"address payable","name":"","type":"address"}],"stateMutability":"view","type":"function"},{"inputs":[{"internalType":"uint256","name":"_nftID","type":"uint256"},{"internalType":"bool","name":"_passed","type":"bool"}],"name":"updateInspectionStatus","outputs":[],"stateMutability":"nonpayable","type":"function"},{"stateMutability":"payable","type":"receive"}],"evm":{"bytecode":{"linkReferences":{},"object":"60806040523480156200001157600080fd5b5060405162000e9038038062000e908339818101604052810190620000379190620001f3565b836000806101000a81548173ffffffffffffffffffffffffffffffffffffffff021916908373ffffffffffffffffffffffffffffffffffffffff16021790555082600160006101000a81548173ffffffffffffffffffffffffffffffffffffffff021916908373ffffffffffffffffffffffffffffffffffffffff16021790555081600260006101000a81548173ffffffffffffffffffffffffffffffffffffffff021916908373ffffffffffffffffffffffffffffffffffffffff16021790555080600360006101000a81548173ffffffffffffffffffffffffffffffffffffffff021916908373ffffffffffffffffffffffffffffffffffffffff1602179055505050505062000265565b600080fd5b600073ffffffffffffffffffffffffffffffffffffffff82169050919050565b6000620001768262000149565b9050919050565b620001888162000169565b81146200019457600080fd5b50565b600081519050620001a8816200017d565b92915050565b6000620001bb8262000149565b9050919050565b620001cd81620001ae565b8114620001d957600080fd5b50565b600081519050620001ed81620001c2565b92915050565b6000806000806080858703121562000210576200020f62000144565b5b6000620002208782880162000197565b94505060206200023387828801620001dc565b9350506040620002468782880162000197565b9250506060620002598782880162000197565b91505092959194509250565b610c1b80620002756000396000f3fe6080604052600436106100c65760003560e01c806377fbc4ae1161007f578063c9f0ec7e11610059578063c9f0ec7e1461029b578063e740f770146102b7578063ed2cee9e146102d3578063fcce4883146102fe576100cd565b806377fbc4ae1461020a5780639d0e5fd614610247578063bcead63e14610270576100cd565b806308551a53146100d257806312065fe0146100fd5780634dd4acaf146101285780635bf8633a146101655780635d19e56c146101905780635eed5fff146101cd576100cd565b366100cd57005b600080fd5b3480156100de57600080fd5b506100e761033b565b6040516100f49190610815565b60405180910390f35b34801561010957600080fd5b50610112610361565b60405161011f9190610849565b60405180910390f35b34801561013457600080fd5b5061014f600480360381019061014a9190610895565b610369565b60405161015c91906108e3565b60405180910390f35b34801561017157600080fd5b5061017a61039c565b60405161018791906108e3565b60405180910390f35b34801561019c57600080fd5b506101b760048036038101906101b29190610895565b6103c0565b6040516101c49190610849565b60405180910390f35b3480156101d957600080fd5b506101f460048036038101906101ef9190610895565b6103d8565b6040516102019190610919565b60405180910390f35b34801561021657600080fd5b50610231600480360381019061022c9190610895565b6103f8565b60405161023e9190610849565b60405180910390f35b34801561025357600080fd5b5061026e60048036038101906102699190610960565b610410565b005b34801561027c57600080fd5b506102856104cf565b60405161029291906108e3565b60405180910390f35b6102b560048036038101906102b091906109cc565b6104f5565b005b6102d160048036038101906102cc9190610895565b6106c8565b005b3480156102df57600080fd5b506102e861078e565b6040516102f591906108e3565b60405180910390f35b34801561030a57600080fd5b5061032560048036038101906103209190610895565b6107b4565b6040516103329190610919565b60405180910390f35b600160009054906101000a900473ffffffffffffffffffffffffffffffffffffffff1681565b600047905090565b60076020528060005260406000206000915054906101000a900473ffffffffffffffffffffffffffffffffffffffff1681565b60008054906101000a900473ffffffffffffffffffffffffffffffffffffffff1681565b60066020528060005260406000206000915090505481565b60086020528060005260406000206000915054906101000a900460ff1681565b60056020528060005260406000206000915090505481565b600260009054906101000a900473ffffffffffffffffffffffffffffffffffffffff1673ffffffffffffffffffffffffffffffffffffffff163373ffffffffffffffffffffffffffffffffffffffff16146104a0576040517f08c379a000000000000000000000000000000000000000000000000000000000815260040161049790610ab6565b60405180910390fd5b806008600084815260200190815260200160002060006101000a81548160ff0219169083151502179055505050565b600360009054906101000a900473ffffffffffffffffffffffffffffffffffffffff1681565b600160009054906101000a900473ffffffffffffffffffffffffffffffffffffffff1673ffffffffffffffffffffffffffffffffffffffff163373ffffffffffffffffffffffffffffffffffffffff1614610585576040517f08c379a000000000000000000000000000000000000000000000000000000000815260040161057c90610b22565b60405180910390fd5b60008054906101000a900473ffffffffffffffffffffffffffffffffffffffff1673ffffffffffffffffffffffffffffffffffffffff166323b872dd3330876040518463ffffffff1660e01b81526004016105e293929190610b42565b600060405180830381600087803b1580156105fc57600080fd5b505af1158015610610573d6000803e3d6000fd5b5050505060016004600086815260200190815260200160002060006101000a81548160ff021916908315150217905550816005600086815260200190815260200160002081905550806006600086815260200190815260200160002081905550826007600086815260200190815260200160002060006101000a81548173ffffffffffffffffffffffffffffffffffffffff021916908373ffffffffffffffffffffffffffffffffffffffff16021790555050505050565b806007600082815260200190815260200160002060009054906101000a900473ffffffffffffffffffffffffffffffffffffffff1673ffffffffffffffffffffffffffffffffffffffff163373ffffffffffffffffffffffffffffffffffffffff161461076a576040517f08c379a000000000000000000000000000000000000000000000000000000000815260040161076190610bc5565b60405180910390fd5b600660008381526020019081526020016000205434101561078a57600080fd5b5050565b600260009054906101000a900473ffffffffffffffffffffffffffffffffffffffff1681565b60046020528060005260406000206000915054906101000a900460ff1681565b600073ffffffffffffffffffffffffffffffffffffffff82169050919050565b60006107ff826107d4565b9050919050565b61080f816107f4565b82525050565b600060208201905061082a6000830184610806565b92915050565b6000819050919050565b61084381610830565b82525050565b600060208201905061085e600083018461083a565b92915050565b600080fd5b61087281610830565b811461087d57600080fd5b50565b60008135905061088f81610869565b92915050565b6000602082840312156108ab576108aa610864565b5b60006108b984828501610880565b91505092915050565b60006108cd826107d4565b9050919050565b6108dd816108c2565b82525050565b60006020820190506108f860008301846108d4565b92915050565b60008115159050919050565b610913816108fe565b82525050565b600060208201905061092e600083018461090a565b92915050565b61093d816108fe565b811461094857600080fd5b50565b60008135905061095a81610934565b92915050565b6000806040838503121561097757610976610864565b5b600061098585828601610880565b92505060206109968582860161094b565b9150509250929050565b6109a9816108c2565b81146109b457600080fd5b50565b6000813590506109c6816109a0565b92915050565b600080600080608085870312156109e6576109e5610864565b5b60006109f487828801610880565b9450506020610a05878288016109b7565b9350506040610a1687828801610880565b9250506060610a2787828801610880565b91505092959194509250565b600082825260208201905092915050565b7f6f6e6c7920696e73706563746f722063616e2063616c6c2074686973206d657460008201527f686f640000000000000000000000000000000000000000000000000000000000602082015250565b6000610aa0602383610a33565b9150610aab82610a44565b604082019050919050565b60006020820190508181036000830152610acf81610a93565b9050919050565b7f6f6e6c792073656c6c65722063616e2063616c6c2074686973206d6574686f64600082015250565b6000610b0c602083610a33565b9150610b1782610ad6565b602082019050919050565b60006020820190508181036000830152610b3b81610aff565b9050919050565b6000606082019050610b5760008301866108d4565b610b6460208301856108d4565b610b71604083018461083a565b949350505050565b7f6f6e6c792062757965722063616e2063616c6c2074686973206d6574686f6400600082015250565b6000610baf601f83610a33565b9150610bba82610b79565b602082019050919050565b60006020820190508181036000830152610bde81610ba2565b905091905056fea2646970667358221220c0f20dec0ebf269aad035bdafec025b789ae4554565a94c33407569faae3708164736f6c63430008110033","opcodes":"PUSH1 0x80 PUSH1 0x40 MSTORE CALLVALUE DUP1 ISZERO PUSH3 0x11 JUMPI PUSH1 0x0 DUP1 REVERT JUMPDEST POP PUSH1 0x40 MLOAD PUSH3 0xE90 CODESIZE SUB DUP1 PUSH3 0xE90 DUP4 CODECOPY DUP2 DUP2 ADD PUSH1 0x40 MSTORE DUP2 ADD SWAP1 PUSH3 0x37 SWAP2 SWAP1 PUSH3 0x1F3 JUMP JUMPDEST DUP4 PUSH1 0x0 DUP1 PUSH2 0x100 EXP DUP2 SLOAD DUP2 PUSH20 0xFFFFFFFFFFFFFFFFFFFFFFFFFFFFFFFFFFFFFFFF MUL NOT AND SWAP1 DUP4 PUSH20 0xFFFFFFFFFFFFFFFFFFFFFFFFFFFFFFFFFFFFFFFF AND MUL OR SWAP1 SSTORE POP DUP3 PUSH1 0x1 PUSH1 0x0 PUSH2 0x100 EXP DUP2 SLOAD DUP2 PUSH20 0xFFFFFFFFFFFFFFFFFFFFFFFFFFFFFFFFFFFFFFFF MUL NOT AND SWAP1 DUP4 PUSH20 0xFFFFFFFFFFFFFFFFFFFFFFFFFFFFFFFFFFFFFFFF AND MUL OR SWAP1 SSTORE POP DUP2 PUSH1 0x2 PUSH1 0x0 PUSH2 0x100 EXP DUP2 SLOAD DUP2 PUSH20 0xFFFFFFFFFFFFFFFFFFFFFFFFFFFFFFFFFFFFFFFF MUL NOT AND SWAP1 DUP4 PUSH20 0xFFFFFFFFFFFFFFFFFFFFFFFFFFFFFFFFFFFFFFFF AND MUL OR SWAP1 SSTORE POP DUP1 PUSH1 0x3 PUSH1 0x0 PUSH2 0x100 EXP DUP2 SLOAD DUP2 PUSH20 0xFFFFFFFFFFFFFFFFFFFFFFFFFFFFFFFFFFFFFFFF MUL NOT AND SWAP1 DUP4 PUSH20 0xFFFFFFFFFFFFFFFFFFFFFFFFFFFFFFFFFFFFFFFF AND MUL OR SWAP1 SSTORE POP POP POP POP POP PUSH3 0x265 JUMP JUMPDEST PUSH1 0x0 DUP1 REVERT JUMPDEST PUSH1 0x0 PUSH20 0xFFFFFFFFFFFFFFFFFFFFFFFFFFFFFFFFFFFFFFFF DUP3 AND SWAP1 POP SWAP2 SWAP1 POP JUMP JUMPDEST PUSH1 0x0 PUSH3 0x176 DUP3 PUSH3 0x149 JUMP JUMPDEST SWAP1 POP SWAP2 SWAP1 POP JUMP JUMPDEST PUSH3 0x188 DUP2 PUSH3 0x169 JUMP JUMPDEST DUP2 EQ PUSH3 0x194 JUMPI PUSH1 0x0 DUP1 REVERT JUMPDEST POP JUMP JUMPDEST PUSH1 0x0 DUP2 MLOAD SWAP1 POP PUSH3 0x1A8 DUP2 PUSH3 0x17D JUMP JUMPDEST SWAP3 SWAP2 POP POP JUMP JUMPDEST PUSH1 0x0 PUSH3 0x1BB DUP3 PUSH3 0x149 JUMP JUMPDEST SWAP1 POP SWAP2 SWAP1 POP JUMP JUMPDEST PUSH3 0x1CD DUP2 PUSH3 0x1AE JUMP JUMPDEST DUP2 EQ PUSH3 0x1D9 JUMPI PUSH1 0x0 DUP1 REVERT JUMPDEST POP JUMP JUMPDEST PUSH1 0x0 DUP2 MLOAD SWAP1 POP PUSH3 0x1ED DUP2 PUSH3 0x1C2 JUMP JUMPDEST SWAP3 SWAP2 POP POP JUMP JUMPDEST PUSH1 0x0 DUP1 PUSH1 0x0 DUP1 PUSH1 0x80 DUP6 DUP8 SUB SLT ISZERO PUSH3 0x210 JUMPI PUSH3 0x20F PUSH3 0x144 JUMP JUMPDEST JUMPDEST PUSH1 0x0 PUSH3 0x220 DUP8 DUP3 DUP9 ADD PUSH3 0x197 JUMP JUMPDEST SWAP5 POP POP PUSH1 0x20 PUSH3 0x233 DUP8 DUP3 DUP9 ADD PUSH3 0x1DC JUMP JUMPDEST SWAP4 POP POP PUSH1 0x40 PUSH3 0x246 DUP8 DUP3 DUP9 ADD PUSH3 0x197 JUMP JUMPDEST SWAP3 POP POP PUSH1 0x60 PUSH3 0x259 DUP8 DUP3 DUP9 ADD PUSH3 0x197 JUMP JUMPDEST SWAP2 POP POP SWAP3 SWAP6 SWAP2 SWAP5 POP SWAP3 POP JUMP JUMPDEST PUSH2 0xC1B DUP1 PUSH3 0x275 PUSH1 0x0 CODECOPY PUSH1 0x0 RETURN INVALID PUSH1 0x80 PUSH1 0x40 MSTORE PUSH1 0x4 CALLDATASIZE LT PUSH2 0xC6 JUMPI PUSH1 0x0 CALLDATALOAD PUSH1 0xE0 SHR DUP1 PUSH4 0x77FBC4AE GT PUSH2 0x7F JUMPI DUP1 PUSH4 0xC9F0EC7E GT PUSH2 0x59 JUMPI DUP1 PUSH4 0xC9F0EC7E EQ PUSH2 0x29B JUMPI DUP1 PUSH4 0xE740F770 EQ PUSH2 0x2B7 JUMPI DUP1 PUSH4 0xED2CEE9E EQ PUSH2 0x2D3 JUMPI DUP1 PUSH4 0xFCCE4883 EQ PUSH2 0x2FE JUMPI PUSH2 0xCD JUMP JUMPDEST DUP1 PUSH4 0x77FBC4AE EQ PUSH2 0x20A JUMPI DUP1 PUSH4 0x9D0E5FD6 EQ PUSH2 0x247 JUMPI DUP1 PUSH4 0xBCEAD63E EQ PUSH2 0x270 JUMPI PUSH2 0xCD JUMP JUMPDEST DUP1 PUSH4 0x8551A53 EQ PUSH2 0xD2 JUMPI DUP1 PUSH4 0x12065FE0 EQ PUSH2 0xFD JUMPI DUP1 PUSH4 0x4DD4ACAF EQ PUSH2 0x128 JUMPI DUP1 PUSH4 0x5BF8633A EQ PUSH2 0x165 JUMPI DUP1 PUSH4 0x5D19E56C EQ PUSH2 0x190 JUMPI DUP1 PUSH4 0x5EED5FFF EQ PUSH2 0x1CD JUMPI PUSH2 0xCD JUMP JUMPDEST CALLDATASIZE PUSH2 0xCD JUMPI STOP JUMPDEST PUSH1 0x0 DUP1 REVERT JUMPDEST CALLVALUE DUP1 ISZERO PUSH2 0xDE JUMPI PUSH1 0x0 DUP1 REVERT JUMPDEST POP PUSH2 0xE7 PUSH2 0x33B JUMP JUMPDEST PUSH1 0x40 MLOAD PUSH2 0xF4 SWAP2 SWAP1 PUSH2 0x815 JUMP JUMPDEST PUSH1 0x40 MLOAD DUP1 SWAP2 SUB SWAP1 RETURN JUMPDEST CALLVALUE DUP1 ISZERO PUSH2 0x109 JUMPI PUSH1 0x0 DUP1 REVERT JUMPDEST POP PUSH2 0x112 PUSH2 0x361 JUMP JUMPDEST PUSH1 0x40 MLOAD PUSH2 0x11F SWAP2 SWAP1 PUSH2 0x849 JUMP JUMPDEST PUSH1 0x40 MLOAD DUP1 SWAP2 SUB SWAP1 RETURN JUMPDEST CALLVALUE DUP1 ISZERO PUSH2 0x134 JUMPI PUSH1 0x0 DUP1 REVERT JUMPDEST POP PUSH2 0x14F PUSH1 0x4 DUP1 CALLDATASIZE SUB DUP2 ADD SWAP1 PUSH2 0x14A SWAP2 SWAP1 PUSH2 0x895 JUMP JUMPDEST PUSH2 0x369 JUMP JUMPDEST PUSH1 0x40 MLOAD PUSH2 0x15C SWAP2 SWAP1 PUSH2 0x8E3 JUMP JUMPDEST PUSH1 0x40 MLOAD DUP1 SWAP2 SUB SWAP1 RETURN JUMPDEST CALLVALUE DUP1 ISZERO PUSH2 0x171 JUMPI PUSH1 0x0 DUP1 REVERT JUMPDEST POP PUSH2 0x17A PUSH2 0x39C JUMP JUMPDEST PUSH1 0x40 MLOAD PUSH2 0x187 SWAP2 SWAP1 PUSH2 0x8E3 JUMP JUMPDEST PUSH1 0x40 MLOAD DUP1 SWAP2 SUB SWAP1 RETURN JUMPDEST CALLVALUE DUP1 ISZERO PUSH2 0x19C JUMPI PUSH1 0x0 DUP1 REVERT JUMPDEST POP PUSH2 0x1B7 PUSH1 0x4 DUP1 CALLDATASIZE SUB DUP2 ADD SWAP1 PUSH2 0x1B2 SWAP2 SWAP1 PUSH2 0x895 JUMP JUMPDEST PUSH2 0x3C0 JUMP JUMPDEST PUSH1 0x40 MLOAD PUSH2 0x1C4 SWAP2 SWAP1 PUSH2 0x849 JUMP JUMPDEST PUSH1 0x40 MLOAD DUP1 SWAP2 SUB SWAP1 RETURN JUMPDEST CALLVALUE DUP1 ISZERO PUSH2 0x1D9 JUMPI PUSH1 0x0 DUP1 REVERT JUMPDEST POP PUSH2 0x1F4 PUSH1 0x4 DUP1 CALLDATASIZE SUB DUP2 ADD SWAP1 PUSH2 0x1EF SWAP2 SWAP1 PUSH2 0x895 JUMP JUMPDEST PUSH2 0x3D8 JUMP JUMPDEST PUSH1 0x40 MLOAD PUSH2 0x201 SWAP2 SWAP1 PUSH2 0x919 JUMP JUMPDEST PUSH1 0x40 MLOAD DUP1 SWAP2 SUB SWAP1 RETURN JUMPDEST CALLVALUE DUP1 ISZERO PUSH2 0x216 JUMPI PUSH1 0x0 DUP1 REVERT JUMPDEST POP PUSH2 0x231 PUSH1 0x4 DUP1 CALLDATASIZE SUB DUP2 ADD SWAP1 PUSH2 0x22C SWAP2 SWAP1 PUSH2 0x895 JUMP JUMPDEST PUSH2 0x3F8 JUMP JUMPDEST PUSH1 0x40 MLOAD PUSH2 0x23E SWAP2 SWAP1 PUSH2 0x849 JUMP JUMPDEST PUSH1 0x40 MLOAD DUP1 SWAP2 SUB SWAP1 RETURN JUMPDEST CALLVALUE DUP1 ISZERO PUSH2 0x253 JUMPI PUSH1 0x0 DUP1 REVERT JUMPDEST POP PUSH2 0x26E PUSH1 0x4 DUP1 CALLDATASIZE SUB DUP2 ADD SWAP1 PUSH2 0x269 SWAP2 SWAP1 PUSH2 0x960 JUMP JUMPDEST PUSH2 0x410 JUMP JUMPDEST STOP JUMPDEST CALLVALUE DUP1 ISZERO PUSH2 0x27C JUMPI PUSH1 0x0 DUP1 REVERT JUMPDEST POP PUSH2 0x285 PUSH2 0x4CF JUMP JUMPDEST PUSH1 0x40 MLOAD PUSH2 0x292 SWAP2 SWAP1 PUSH2 0x8E3 JUMP JUMPDEST PUSH1 0x40 MLOAD DUP1 SWAP2 SUB SWAP1 RETURN JUMPDEST PUSH2 0x2B5 PUSH1 0x4 DUP1 CALLDATASIZE SUB DUP2 ADD SWAP1 PUSH2 0x2B0 SWAP2 SWAP1 PUSH2 0x9CC JUMP JUMPDEST PUSH2 0x4F5 JUMP JUMPDEST STOP JUMPDEST PUSH2 0x2D1 PUSH1 0x4 DUP1 CALLDATASIZE SUB DUP2 ADD SWAP1 PUSH2 0x2CC SWAP2 SWAP1 PUSH2 0x895 JUMP JUMPDEST PUSH2 0x6C8 JUMP JUMPDEST STOP JUMPDEST CALLVALUE DUP1 ISZERO PUSH2 0x2DF JUMPI PUSH1 0x0 DUP1 REVERT JUMPDEST POP PUSH2 0x2E8 PUSH2 0x78E JUMP JUMPDEST PUSH1 0x40 MLOAD PUSH2 0x2F5 SWAP2 SWAP1 PUSH2 0x8E3 JUMP JUMPDEST PUSH1 0x40 MLOAD DUP1 SWAP2 SUB SWAP1 RETURN JUMPDEST CALLVALUE DUP1 ISZERO PUSH2 0x30A JUMPI PUSH1 0x0 DUP1 REVERT JUMPDEST POP PUSH2 0x325 PUSH1 0x4 DUP1 CALLDATASIZE SUB DUP2 ADD SWAP1 PUSH2 0x320 SWAP2 SWAP1 PUSH2 0x895 JUMP JUMPDEST PUSH2 0x7B4 JUMP JUMPDEST PUSH1 0x40 MLOAD PUSH2 0x332 SWAP2 SWAP1 PUSH2 0x919 JUMP JUMPDEST PUSH1 0x40 MLOAD DUP1 SWAP2 SUB SWAP1 RETURN JUMPDEST PUSH1 0x1 PUSH1 0x0 SWAP1 SLOAD SWAP1 PUSH2 0x100 EXP SWAP1 DIV PUSH20 0xFFFFFFFFFFFFFFFFFFFFFFFFFFFFFFFFFFFFFFFF AND DUP2 JUMP JUMPDEST PUSH1 0x0 SELFBALANCE SWAP1 POP SWAP1 JUMP JUMPDEST PUSH1 0x7 PUSH1 0x20 MSTORE DUP1 PUSH1 0x0 MSTORE PUSH1 0x40 PUSH1 0x0 KECCAK256 PUSH1 0x0 SWAP2 POP SLOAD SWAP1 PUSH2 0x100 EXP SWAP1 DIV PUSH20 0xFFFFFFFFFFFFFFFFFFFFFFFFFFFFFFFFFFFFFFFF AND DUP2 JUMP JUMPDEST PUSH1 0x0 DUP1 SLOAD SWAP1 PUSH2 0x100 EXP SWAP1 DIV PUSH20 0xFFFFFFFFFFFFFFFFFFFFFFFFFFFFFFFFFFFFFFFF AND DUP2 JUMP JUMPDEST PUSH1 0x6 PUSH1 0x20 MSTORE DUP1 PUSH1 0x0 MSTORE PUSH1 0x40 PUSH1 0x0 KECCAK256 PUSH1 0x0 SWAP2 POP SWAP1 POP SLOAD DUP2 JUMP JUMPDEST PUSH1 0x8 PUSH1 0x20 MSTORE DUP1 PUSH1 0x0 MSTORE PUSH1 0x40 PUSH1 0x0 KECCAK256 PUSH1 0x0 SWAP2 POP SLOAD SWAP1 PUSH2 0x100 EXP SWAP1 DIV PUSH1 0xFF AND DUP2 JUMP JUMPDEST PUSH1 0x5 PUSH1 0x20 MSTORE DUP1 PUSH1 0x0 MSTORE PUSH1 0x40 PUSH1 0x0 KECCAK256 PUSH1 0x0 SWAP2 POP SWAP1 POP SLOAD DUP2 JUMP JUMPDEST PUSH1 0x2 PUSH1 0x0 SWAP1 SLOAD SWAP1 PUSH2 0x100 EXP SWAP1 DIV PUSH20 0xFFFFFFFFFFFFFFFFFFFFFFFFFFFFFFFFFFFFFFFF AND PUSH20 0xFFFFFFFFFFFFFFFFFFFFFFFFFFFFFFFFFFFFFFFF AND CALLER PUSH20 0xFFFFFFFFFFFFFFFFFFFFFFFFFFFFFFFFFFFFFFFF AND EQ PUSH2 0x4A0 JUMPI PUSH1 0x40 MLOAD PUSH32 0x8C379A000000000000000000000000000000000000000000000000000000000 DUP2 MSTORE PUSH1 0x4 ADD PUSH2 0x497 SWAP1 PUSH2 0xAB6 JUMP JUMPDEST PUSH1 0x40 MLOAD DUP1 SWAP2 SUB SWAP1 REVERT JUMPDEST DUP1 PUSH1 0x8 PUSH1 0x0 DUP5 DUP2 MSTORE PUSH1 0x20 ADD SWAP1 DUP2 MSTORE PUSH1 0x20 ADD PUSH1 0x0 KECCAK256 PUSH1 0x0 PUSH2 0x100 EXP DUP2 SLOAD DUP2 PUSH1 0xFF MUL NOT AND SWAP1 DUP4 ISZERO ISZERO MUL OR SWAP1 SSTORE POP POP POP JUMP JUMPDEST PUSH1 0x3 PUSH1 0x0 SWAP1 SLOAD SWAP1 PUSH2 0x100 EXP SWAP1 DIV PUSH20 0xFFFFFFFFFFFFFFFFFFFFFFFFFFFFFFFFFFFFFFFF AND DUP2 JUMP JUMPDEST PUSH1 0x1 PUSH1 0x0 SWAP1 SLOAD SWAP1 PUSH2 0x100 EXP SWAP1 DIV PUSH20 0xFFFFFFFFFFFFFFFFFFFFFFFFFFFFFFFFFFFFFFFF AND PUSH20 0xFFFFFFFFFFFFFFFFFFFFFFFFFFFFFFFFFFFFFFFF AND CALLER PUSH20 0xFFFFFFFFFFFFFFFFFFFFFFFFFFFFFFFFFFFFFFFF AND EQ PUSH2 0x585 JUMPI PUSH1 0x40 MLOAD PUSH32 0x8C379A000000000000000000000000000000000000000000000000000000000 DUP2 MSTORE PUSH1 0x4 ADD PUSH2 0x57C SWAP1 PUSH2 0xB22 JUMP JUMPDEST PUSH1 0x40 MLOAD DUP1 SWAP2 SUB SWAP1 REVERT JUMPDEST PUSH1 0x0 DUP1 SLOAD SWAP1 PUSH2 0x100 EXP SWAP1 DIV PUSH20 0xFFFFFFFFFFFFFFFFFFFFFFFFFFFFFFFFFFFFFFFF AND PUSH20 0xFFFFFFFFFFFFFFFFFFFFFFFFFFFFFFFFFFFFFFFF AND PUSH4 0x23B872DD CALLER ADDRESS DUP8 PUSH1 0x40 MLOAD DUP5 PUSH4 0xFFFFFFFF AND PUSH1 0xE0 SHL DUP2 MSTORE PUSH1 0x4 ADD PUSH2 0x5E2 SWAP4 SWAP3 SWAP2 SWAP1 PUSH2 0xB42 JUMP JUMPDEST PUSH1 0x0 PUSH1 0x40 MLOAD DUP1 DUP4 SUB DUP2 PUSH1 0x0 DUP8 DUP1 EXTCODESIZE ISZERO DUP1 ISZERO PUSH2 0x5FC JUMPI PUSH1 0x0 DUP1 REVERT JUMPDEST POP GAS CALL ISZERO DUP1 ISZERO PUSH2 0x610 JUMPI RETURNDATASIZE PUSH1 0x0 DUP1 RETURNDATACOPY RETURNDATASIZE PUSH1 0x0 REVERT JUMPDEST POP POP POP POP PUSH1 0x1 PUSH1 0x4 PUSH1 0x0 DUP7 DUP2 MSTORE PUSH1 0x20 ADD SWAP1 DUP2 MSTORE PUSH1 0x20 ADD PUSH1 0x0 KECCAK256 PUSH1 0x0 PUSH2 0x100 EXP DUP2 SLOAD DUP2 PUSH1 0xFF MUL NOT AND SWAP1 DUP4 ISZERO ISZERO MUL OR SWAP1 SSTORE POP DUP2 PUSH1 0x5 PUSH1 0x0 DUP7 DUP2 MSTORE PUSH1 0x20 ADD SWAP1 DUP2 MSTORE PUSH1 0x20 ADD PUSH1 0x0 KECCAK256 DUP2 SWAP1 SSTORE POP DUP1 PUSH1 0x6 PUSH1 0x0 DUP7 DUP2 MSTORE PUSH1 0x20 ADD SWAP1 DUP2 MSTORE PUSH1 0x20 ADD PUSH1 0x0 KECCAK256 DUP2 SWAP1 SSTORE POP DUP3 PUSH1 0x7 PUSH1 0x0 DUP7 DUP2 MSTORE PUSH1 0x20 ADD SWAP1 DUP2 MSTORE PUSH1 0x20 ADD PUSH1 0x0 KECCAK256 PUSH1 0x0 PUSH2 0x100 EXP DUP2 SLOAD DUP2 PUSH20 0xFFFFFFFFFFFFFFFFFFFFFFFFFFFFFFFFFFFFFFFF MUL NOT AND SWAP1 DUP4 PUSH20 0xFFFFFFFFFFFFFFFFFFFFFFFFFFFFFFFFFFFFFFFF AND MUL OR SWAP1 SSTORE POP POP POP POP POP JUMP JUMPDEST DUP1 PUSH1 0x7 PUSH1 0x0 DUP3 DUP2 MSTORE PUSH1 0x20 ADD SWAP1 DUP2 MSTORE PUSH1 0x20 ADD PUSH1 0x0 KECCAK256 PUSH1 0x0 SWAP1 SLOAD SWAP1 PUSH2 0x100 EXP SWAP1 DIV PUSH20 0xFFFFFFFFFFFFFFFFFFFFFFFFFFFFFFFFFFFFFFFF AND PUSH20 0xFFFFFFFFFFFFFFFFFFFFFFFFFFFFFFFFFFFFFFFF AND CALLER PUSH20 0xFFFFFFFFFFFFFFFFFFFFFFFFFFFFFFFFFFFFFFFF AND EQ PUSH2 0x76A JUMPI PUSH1 0x40 MLOAD PUSH32 0x8C379A000000000000000000000000000000000000000000000000000000000 DUP2 MSTORE PUSH1 0x4 ADD PUSH2 0x761 SWAP1 PUSH2 0xBC5 JUMP JUMPDEST PUSH1 0x40 MLOAD DUP1 SWAP2 SUB SWAP1 REVERT JUMPDEST PUSH1 0x6 PUSH1 0x0 DUP4 DUP2 MSTORE PUSH1 0x20 ADD SWAP1 DUP2 MSTORE PUSH1 0x20 ADD PUSH1 0x0 KECCAK256 SLOAD CALLVALUE LT ISZERO PUSH2 0x78A JUMPI PUSH1 0x0 DUP1 REVERT JUMPDEST POP POP JUMP JUMPDEST PUSH1 0x2 PUSH1 0x0 SWAP1 SLOAD SWAP1 PUSH2 0x100 EXP SWAP1 DIV PUSH20 0xFFFFFFFFFFFFFFFFFFFFFFFFFFFFFFFFFFFFFFFF AND DUP2 JUMP JUMPDEST PUSH1 0x4 PUSH1 0x20 MSTORE DUP1 PUSH1 0x0 MSTORE PUSH1 0x40 PUSH1 0x0 KECCAK256 PUSH1 0x0 SWAP2 POP SLOAD SWAP1 PUSH2 0x100 EXP SWAP1 DIV PUSH1 0xFF AND DUP2 JUMP JUMPDEST PUSH1 0x0 PUSH20 0xFFFFFFFFFFFFFFFFFFFFFFFFFFFFFFFFFFFFFFFF DUP3 AND SWAP1 POP SWAP2 SWAP1 POP JUMP JUMPDEST PUSH1 0x0 PUSH2 0x7FF DUP3 PUSH2 0x7D4 JUMP JUMPDEST SWAP1 POP SWAP2 SWAP1 POP JUMP JUMPDEST PUSH2 0x80F DUP2 PUSH2 0x7F4 JUMP JUMPDEST DUP3 MSTORE POP POP JUMP JUMPDEST PUSH1 0x0 PUSH1 0x20 DUP3 ADD SWAP1 POP PUSH2 0x82A PUSH1 0x0 DUP4 ADD DUP5 PUSH2 0x806 JUMP JUMPDEST SWAP3 SWAP2 POP POP JUMP JUMPDEST PUSH1 0x0 DUP2 SWAP1 POP SWAP2 SWAP1 POP JUMP JUMPDEST PUSH2 0x843 DUP2 PUSH2 0x830 JUMP JUMPDEST DUP3 MSTORE POP POP JUMP JUMPDEST PUSH1 0x0 PUSH1 0x20 DUP3 ADD SWAP1 POP PUSH2 0x85E PUSH1 0x0 DUP4 ADD DUP5 PUSH2 0x83A JUMP JUMPDEST SWAP3 SWAP2 POP POP JUMP JUMPDEST PUSH1 0x0 DUP1 REVERT JUMPDEST PUSH2 0x872 DUP2 PUSH2 0x830 JUMP JUMPDEST DUP2 EQ PUSH2 0x87D JUMPI PUSH1 0x0 DUP1 REVERT JUMPDEST POP JUMP JUMPDEST PUSH1 0x0 DUP2 CALLDATALOAD SWAP1 POP PUSH2 0x88F DUP2 PUSH2 0x869 JUMP JUMPDEST SWAP3 SWAP2 POP POP JUMP JUMPDEST PUSH1 0x0 PUSH1 0x20 DUP3 DUP5 SUB SLT ISZERO PUSH2 0x8AB JUMPI PUSH2 0x8AA PUSH2 0x864 JUMP JUMPDEST JUMPDEST PUSH1 0x0 PUSH2 0x8B9 DUP5 DUP3 DUP6 ADD PUSH2 0x880 JUMP JUMPDEST SWAP2 POP POP SWAP3 SWAP2 POP POP JUMP JUMPDEST PUSH1 0x0 PUSH2 0x8CD DUP3 PUSH2 0x7D4 JUMP JUMPDEST SWAP1 POP SWAP2 SWAP1 POP JUMP JUMPDEST PUSH2 0x8DD DUP2 PUSH2 0x8C2 JUMP JUMPDEST DUP3 MSTORE POP POP JUMP JUMPDEST PUSH1 0x0 PUSH1 0x20 DUP3 ADD SWAP1 POP PUSH2 0x8F8 PUSH1 0x0 DUP4 ADD DUP5 PUSH2 0x8D4 JUMP JUMPDEST SWAP3 SWAP2 POP POP JUMP JUMPDEST PUSH1 0x0 DUP2 ISZERO ISZERO SWAP1 POP SWAP2 SWAP1 POP JUMP JUMPDEST PUSH2 0x913 DUP2 PUSH2 0x8FE JUMP JUMPDEST DUP3 MSTORE POP POP JUMP JUMPDEST PUSH1 0x0 PUSH1 0x20 DUP3 ADD SWAP1 POP PUSH2 0x92E PUSH1 0x0 DUP4 ADD DUP5 PUSH2 0x90A JUMP JUMPDEST SWAP3 SWAP2 POP POP JUMP JUMPDEST PUSH2 0x93D DUP2 PUSH2 0x8FE JUMP JUMPDEST DUP2 EQ PUSH2 0x948 JUMPI PUSH1 0x0 DUP1 REVERT JUMPDEST POP JUMP JUMPDEST PUSH1 0x0 DUP2 CALLDATALOAD SWAP1 POP PUSH2 0x95A DUP2 PUSH2 0x934 JUMP JUMPDEST SWAP3 SWAP2 POP POP JUMP JUMPDEST PUSH1 0x0 DUP1 PUSH1 0x40 DUP4 DUP6 SUB SLT ISZERO PUSH2 0x977 JUMPI PUSH2 0x976 PUSH2 0x864 JUMP JUMPDEST JUMPDEST PUSH1 0x0 PUSH2 0x985 DUP6 DUP3 DUP7 ADD PUSH2 0x880 JUMP JUMPDEST SWAP3 POP POP PUSH1 0x20 PUSH2 0x996 DUP6 DUP3 DUP7 ADD PUSH2 0x94B JUMP JUMPDEST SWAP2 POP POP SWAP3 POP SWAP3 SWAP1 POP JUMP JUMPDEST PUSH2 0x9A9 DUP2 PUSH2 0x8C2 JUMP JUMPDEST DUP2 EQ PUSH2 0x9B4 JUMPI PUSH1 0x0 DUP1 REVERT JUMPDEST POP JUMP JUMPDEST PUSH1 0x0 DUP2 CALLDATALOAD SWAP1 POP PUSH2 0x9C6 DUP2 PUSH2 0x9A0 JUMP JUMPDEST SWAP3 SWAP2 POP POP JUMP JUMPDEST PUSH1 0x0 DUP1 PUSH1 0x0 DUP1 PUSH1 0x80 DUP6 DUP8 SUB SLT ISZERO PUSH2 0x9E6 JUMPI PUSH2 0x9E5 PUSH2 0x864 JUMP JUMPDEST JUMPDEST PUSH1 0x0 PUSH2 0x9F4 DUP8 DUP3 DUP9 ADD PUSH2 0x880 JUMP JUMPDEST SWAP5 POP POP PUSH1 0x20 PUSH2 0xA05 DUP8 DUP3 DUP9 ADD PUSH2 0x9B7 JUMP JUMPDEST SWAP4 POP POP PUSH1 0x40 PUSH2 0xA16 DUP8 DUP3 DUP9 ADD PUSH2 0x880 JUMP JUMPDEST SWAP3 POP POP PUSH1 0x60 PUSH2 0xA27 DUP8 DUP3 DUP9 ADD PUSH2 0x880 JUMP JUMPDEST SWAP2 POP POP SWAP3 SWAP6 SWAP2 SWAP5 POP SWAP3 POP JUMP JUMPDEST PUSH1 0x0 DUP3 DUP3 MSTORE PUSH1 0x20 DUP3 ADD SWAP1 POP SWAP3 SWAP2 POP POP JUMP JUMPDEST PUSH32 0x6F6E6C7920696E73706563746F722063616E2063616C6C2074686973206D6574 PUSH1 0x0 DUP3 ADD MSTORE PUSH32 0x686F640000000000000000000000000000000000000000000000000000000000 PUSH1 0x20 DUP3 ADD MSTORE POP JUMP JUMPDEST PUSH1 0x0 PUSH2 0xAA0 PUSH1 0x23 DUP4 PUSH2 0xA33 JUMP JUMPDEST SWAP2 POP PUSH2 0xAAB DUP3 PUSH2 0xA44 JUMP JUMPDEST PUSH1 0x40 DUP3 ADD SWAP1 POP SWAP2 SWAP1 POP JUMP JUMPDEST PUSH1 0x0 PUSH1 0x20 DUP3 ADD SWAP1 POP DUP2 DUP2 SUB PUSH1 0x0 DUP4 ADD MSTORE PUSH2 0xACF DUP2 PUSH2 0xA93 JUMP JUMPDEST SWAP1 POP SWAP2 SWAP1 POP JUMP JUMPDEST PUSH32 0x6F6E6C792073656C6C65722063616E2063616C6C2074686973206D6574686F64 PUSH1 0x0 DUP3 ADD MSTORE POP JUMP JUMPDEST PUSH1 0x0 PUSH2 0xB0C PUSH1 0x20 DUP4 PUSH2 0xA33 JUMP JUMPDEST SWAP2 POP PUSH2 0xB17 DUP3 PUSH2 0xAD6 JUMP JUMPDEST PUSH1 0x20 DUP3 ADD SWAP1 POP SWAP2 SWAP1 POP JUMP JUMPDEST PUSH1 0x0 PUSH1 0x20 DUP3 ADD SWAP1 POP DUP2 DUP2 SUB PUSH1 0x0 DUP4 ADD MSTORE PUSH2 0xB3B DUP2 PUSH2 0xAFF JUMP JUMPDEST SWAP1 POP SWAP2 SWAP1 POP JUMP JUMPDEST PUSH1 0x0 PUSH1 0x60 DUP3 ADD SWAP1 POP PUSH2 0xB57 PUSH1 0x0 DUP4 ADD DUP7 PUSH2 0x8D4 JUMP JUMPDEST PUSH2 0xB64 PUSH1 0x20 DUP4 ADD DUP6 PUSH2 0x8D4 JUMP JUMPDEST PUSH2 0xB71 PUSH1 0x40 DUP4 ADD DUP5 PUSH2 0x83A JUMP JUMPDEST SWAP5 SWAP4 POP POP POP POP JUMP JUMPDEST PUSH32 0x6F6E6C792062757965722063616E2063616C6C2074686973206D6574686F6400 PUSH1 0x0 DUP3 ADD MSTORE POP JUMP JUMPDEST PUSH1 0x0 PUSH2 0xBAF PUSH1 0x1F DUP4 PUSH2 0xA33 JUMP JUMPDEST SWAP2 POP PUSH2 0xBBA DUP3 PUSH2 0xB79 JUMP JUMPDEST PUSH1 0x20 DUP3 ADD SWAP1 POP SWAP2 SWAP1 POP JUMP JUMPDEST PUSH1 0x0 PUSH1 0x20 DUP3 ADD SWAP1 POP DUP2 DUP2 SUB PUSH1 0x0 DUP4 ADD MSTORE PUSH2 0xBDE DUP2 PUSH2 0xBA2 JUMP JUMPDEST SWAP1 POP SWAP2 SWAP1 POP JUMP INVALID LOG2 PUSH5 0x6970667358 0x22 SLT KECCAK256 0xC0 CALLCODE 0xD 0xEC 0xE 0xBF 0x26 SWAP11 0xAD SUB JUMPDEST 0xDA INVALID 0xC0 0x25 0xB7 DUP10 0xAE GASLIMIT SLOAD JUMP GAS SWAP5 0xC3 CALLVALUE SMOD JUMP SWAP16 0xAA 0xE3 PUSH17 0x8164736F6C634300081100330000000000 "},"methodIdentifiers":{"buyer(uint256)":"4dd4acaf","depositEarnest(uint256)":"e740f770","escrowAmount(uint256)":"5d19e56c","getBalance()":"12065fe0","inspectionPassed(uint256)":"5eed5fff","inspector()":"ed2cee9e","isListed(uint256)":"fcce4883","lender()":"bcead63e","list(uint256,address,uint256,uint256)":"c9f0ec7e","nftAddress()":"5bf8633a","purchasePrice(uint256)":"77fbc4ae","seller()":"08551a53","updateInspectionStatus(uint256,bool)":"9d0e5fd6"}}}}}