{
  "_format": "hh-sol-artifact-1",
  "contractName": "Escrow",
  "sourceName": "contracts/Escrow.sol",
  "abi": [
    {
      "inputs": [
        {
          "internalType": "address",
          "name": "_nftAddress",
          "type": "address"
        },
        {
          "internalType": "address payable",
          "name": "_seller",
          "type": "address"
        },
        {
          "internalType": "address",
          "name": "_inspector",
          "type": "address"
        },
        {
          "internalType": "address",
          "name": "_lender",
          "type": "address"
        }
      ],
      "stateMutability": "nonpayable",
      "type": "constructor"
    },
    {
      "inputs": [
        {
          "internalType": "uint256",
          "name": "",
          "type": "uint256"
        }
      ],
      "name": "buyer",
      "outputs": [
        {
          "internalType": "address",
          "name": "",
          "type": "address"
        }
      ],
      "stateMutability": "view",
      "type": "function"
    },
    {
      "inputs": [
        {
          "internalType": "uint256",
          "name": "_nftID",
          "type": "uint256"
        }
      ],
      "name": "depositEarnest",
      "outputs": [],
      "stateMutability": "payable",
      "type": "function"
    },
    {
      "inputs": [
        {
          "internalType": "uint256",
          "name": "",
          "type": "uint256"
        }
      ],
      "name": "escrowAmount",
      "outputs": [
        {
          "internalType": "uint256",
          "name": "",
          "type": "uint256"
        }
      ],
      "stateMutability": "view",
      "type": "function"
    },
    {
      "inputs": [],
      "name": "getBalance",
      "outputs": [
        {
          "internalType": "uint256",
          "name": "",
          "type": "uint256"
        }
      ],
      "stateMutability": "view",
      "type": "function"
    },
    {
      "inputs": [],
      "name": "inspector",
      "outputs": [
        {
          "internalType": "address",
          "name": "",
          "type": "address"
        }
      ],
      "stateMutability": "view",
      "type": "function"
    },
    {
      "inputs": [
        {
          "internalType": "uint256",
          "name": "",
          "type": "uint256"
        }
      ],
      "name": "isListed",
      "outputs": [
        {
          "internalType": "bool",
          "name": "",
          "type": "bool"
        }
      ],
      "stateMutability": "view",
      "type": "function"
    },
    {
      "inputs": [],
      "name": "lender",
      "outputs": [
        {
          "internalType": "address",
          "name": "",
          "type": "address"
        }
      ],
      "stateMutability": "view",
      "type": "function"
    },
    {
      "inputs": [
        {
          "internalType": "uint256",
          "name": "_nftID",
          "type": "uint256"
        },
        {
          "internalType": "address",
          "name": "_buyer",
          "type": "address"
        },
        {
          "internalType": "uint256",
          "name": "_purchasePrice",
          "type": "uint256"
        },
        {
          "internalType": "uint256",
          "name": "_escrowAmount",
          "type": "uint256"
        }
      ],
      "name": "list",
      "outputs": [],
      "stateMutability": "payable",
      "type": "function"
    },
    {
      "inputs": [],
      "name": "nftAddress",
      "outputs": [
        {
          "internalType": "address",
          "name": "",
          "type": "address"
        }
      ],
      "stateMutability": "view",
      "type": "function"
    },
    {
      "inputs": [
        {
          "internalType": "uint256",
          "name": "",
          "type": "uint256"
        }
      ],
      "name": "purchasePrice",
      "outputs": [
        {
          "internalType": "uint256",
          "name": "",
          "type": "uint256"
        }
      ],
      "stateMutability": "view",
      "type": "function"
    },
    {
      "inputs": [],
      "name": "seller",
      "outputs": [
        {
          "internalType": "address payable",
          "name": "",
          "type": "address"
        }
      ],
      "stateMutability": "view",
      "type": "function"
    },
    {
      "stateMutability": "payable",
      "type": "receive"
    }
  ],
  "bytecode": "0x60806040523480156200001157600080fd5b5060405162000c2738038062000c278339818101604052810190620000379190620001f3565b836000806101000a81548173ffffffffffffffffffffffffffffffffffffffff021916908373ffffffffffffffffffffffffffffffffffffffff16021790555082600160006101000a81548173ffffffffffffffffffffffffffffffffffffffff021916908373ffffffffffffffffffffffffffffffffffffffff16021790555081600260006101000a81548173ffffffffffffffffffffffffffffffffffffffff021916908373ffffffffffffffffffffffffffffffffffffffff16021790555080600360006101000a81548173ffffffffffffffffffffffffffffffffffffffff021916908373ffffffffffffffffffffffffffffffffffffffff1602179055505050505062000265565b600080fd5b600073ffffffffffffffffffffffffffffffffffffffff82169050919050565b6000620001768262000149565b9050919050565b620001888162000169565b81146200019457600080fd5b50565b600081519050620001a8816200017d565b92915050565b6000620001bb8262000149565b9050919050565b620001cd81620001ae565b8114620001d957600080fd5b50565b600081519050620001ed81620001c2565b92915050565b6000806000806080858703121562000210576200020f62000144565b5b6000620002208782880162000197565b94505060206200023387828801620001dc565b9350506040620002468782880162000197565b9250506060620002598782880162000197565b91505092959194509250565b6109b280620002756000396000f3fe6080604052600436106100a05760003560e01c806377fbc4ae1161006457806377fbc4ae146101a7578063bcead63e146101e4578063c9f0ec7e1461020f578063e740f7701461022b578063ed2cee9e14610247578063fcce488314610272576100a7565b806308551a53146100ac57806312065fe0146100d75780634dd4acaf146101025780635bf8633a1461013f5780635d19e56c1461016a576100a7565b366100a757005b600080fd5b3480156100b857600080fd5b506100c16102af565b6040516100ce91906106aa565b60405180910390f35b3480156100e357600080fd5b506100ec6102d5565b6040516100f991906106de565b60405180910390f35b34801561010e57600080fd5b506101296004803603810190610124919061072a565b6102dd565b6040516101369190610778565b60405180910390f35b34801561014b57600080fd5b50610154610310565b6040516101619190610778565b60405180910390f35b34801561017657600080fd5b50610191600480360381019061018c919061072a565b610334565b60405161019e91906106de565b60405180910390f35b3480156101b357600080fd5b506101ce60048036038101906101c9919061072a565b61034c565b6040516101db91906106de565b60405180910390f35b3480156101f057600080fd5b506101f9610364565b6040516102069190610778565b60405180910390f35b610229600480360381019061022491906107bf565b61038a565b005b6102456004803603810190610240919061072a565b61055d565b005b34801561025357600080fd5b5061025c610623565b6040516102699190610778565b60405180910390f35b34801561027e57600080fd5b506102996004803603810190610294919061072a565b610649565b6040516102a69190610841565b60405180910390f35b600160009054906101000a900473ffffffffffffffffffffffffffffffffffffffff1681565b600047905090565b60076020528060005260406000206000915054906101000a900473ffffffffffffffffffffffffffffffffffffffff1681565b60008054906101000a900473ffffffffffffffffffffffffffffffffffffffff1681565b60066020528060005260406000206000915090505481565b60056020528060005260406000206000915090505481565b600360009054906101000a900473ffffffffffffffffffffffffffffffffffffffff1681565b600160009054906101000a900473ffffffffffffffffffffffffffffffffffffffff1673ffffffffffffffffffffffffffffffffffffffff163373ffffffffffffffffffffffffffffffffffffffff161461041a576040517f08c379a0000000000000000000000000000000000000000000000000000000008152600401610411906108b9565b60405180910390fd5b60008054906101000a900473ffffffffffffffffffffffffffffffffffffffff1673ffffffffffffffffffffffffffffffffffffffff166323b872dd3330876040518463ffffffff1660e01b8152600401610477939291906108d9565b600060405180830381600087803b15801561049157600080fd5b505af11580156104a5573d6000803e3d6000fd5b5050505060016004600086815260200190815260200160002060006101000a81548160ff021916908315150217905550816005600086815260200190815260200160002081905550806006600086815260200190815260200160002081905550826007600086815260200190815260200160002060006101000a81548173ffffffffffffffffffffffffffffffffffffffff021916908373ffffffffffffffffffffffffffffffffffffffff16021790555050505050565b806007600082815260200190815260200160002060009054906101000a900473ffffffffffffffffffffffffffffffffffffffff1673ffffffffffffffffffffffffffffffffffffffff163373ffffffffffffffffffffffffffffffffffffffff16146105ff576040517f08c379a00000000000000000000000000000000000000000000000000000000081526004016105f69061095c565b60405180910390fd5b600660008381526020019081526020016000205434101561061f57600080fd5b5050565b600260009054906101000a900473ffffffffffffffffffffffffffffffffffffffff1681565b60046020528060005260406000206000915054906101000a900460ff1681565b600073ffffffffffffffffffffffffffffffffffffffff82169050919050565b600061069482610669565b9050919050565b6106a481610689565b82525050565b60006020820190506106bf600083018461069b565b92915050565b6000819050919050565b6106d8816106c5565b82525050565b60006020820190506106f360008301846106cf565b92915050565b600080fd5b610707816106c5565b811461071257600080fd5b50565b600081359050610724816106fe565b92915050565b6000602082840312156107405761073f6106f9565b5b600061074e84828501610715565b91505092915050565b600061076282610669565b9050919050565b61077281610757565b82525050565b600060208201905061078d6000830184610769565b92915050565b61079c81610757565b81146107a757600080fd5b50565b6000813590506107b981610793565b92915050565b600080600080608085870312156107d9576107d86106f9565b5b60006107e787828801610715565b94505060206107f8878288016107aa565b935050604061080987828801610715565b925050606061081a87828801610715565b91505092959194509250565b60008115159050919050565b61083b81610826565b82525050565b60006020820190506108566000830184610832565b92915050565b600082825260208201905092915050565b7f6f6e6c792073656c6c65722063616e2063616c6c2074686973206d6574686f64600082015250565b60006108a360208361085c565b91506108ae8261086d565b602082019050919050565b600060208201905081810360008301526108d281610896565b9050919050565b60006060820190506108ee6000830186610769565b6108fb6020830185610769565b61090860408301846106cf565b949350505050565b7f6f6e6c792062757965722063616e2063616c6c2074686973206d6574686f6400600082015250565b6000610946601f8361085c565b915061095182610910565b602082019050919050565b6000602082019050818103600083015261097581610939565b905091905056fea2646970667358221220c76645036c24643de67bc4b36f30c5b719e2d7eef22213a73bf1d873f156bf1564736f6c63430008110033",
  "linkReferences": {},
  "deployedLinkReferences": {}
}